{
  "contractName": "ArtCollectible",
  "abi": [
    {
      "inputs": [],
      "stateMutability": "nonpayable",
      "type": "constructor"
    },
    {
      "anonymous": false,
      "inputs": [
        {
          "indexed": true,
          "internalType": "address",
          "name": "owner",
          "type": "address"
        },
        {
          "indexed": true,
          "internalType": "address",
          "name": "approved",
          "type": "address"
        },
        {
          "indexed": true,
          "internalType": "uint256",
          "name": "tokenId",
          "type": "uint256"
        }
      ],
      "name": "Approval",
      "type": "event"
    },
    {
      "anonymous": false,
      "inputs": [
        {
          "indexed": true,
          "internalType": "address",
          "name": "owner",
          "type": "address"
        },
        {
          "indexed": true,
          "internalType": "address",
          "name": "operator",
          "type": "address"
        },
        {
          "indexed": false,
          "internalType": "bool",
          "name": "approved",
          "type": "bool"
        }
      ],
      "name": "ApprovalForAll",
      "type": "event"
    },
    {
      "anonymous": false,
      "inputs": [
        {
          "indexed": true,
          "internalType": "address",
          "name": "previousOwner",
          "type": "address"
        },
        {
          "indexed": true,
          "internalType": "address",
          "name": "newOwner",
          "type": "address"
        }
      ],
      "name": "OwnershipTransferred",
      "type": "event"
    },
    {
      "anonymous": false,
      "inputs": [
        {
          "indexed": true,
          "internalType": "address",
          "name": "from",
          "type": "address"
        },
        {
          "indexed": true,
          "internalType": "address",
          "name": "to",
          "type": "address"
        },
        {
          "indexed": true,
          "internalType": "uint256",
          "name": "tokenId",
          "type": "uint256"
        }
      ],
      "name": "Transfer",
      "type": "event"
    },
    {
      "inputs": [
        {
          "internalType": "address",
          "name": "to",
          "type": "address"
        },
        {
          "internalType": "uint256",
          "name": "tokenId",
          "type": "uint256"
        }
      ],
      "name": "approve",
      "outputs": [],
      "stateMutability": "nonpayable",
      "type": "function"
    },
    {
      "inputs": [
        {
          "internalType": "address",
          "name": "owner",
          "type": "address"
        }
      ],
      "name": "balanceOf",
      "outputs": [
        {
          "internalType": "uint256",
          "name": "",
          "type": "uint256"
        }
      ],
      "stateMutability": "view",
      "type": "function",
      "constant": true
    },
    {
      "inputs": [
        {
          "internalType": "uint256",
          "name": "tokenId",
          "type": "uint256"
        }
      ],
      "name": "getApproved",
      "outputs": [
        {
          "internalType": "address",
          "name": "",
          "type": "address"
        }
      ],
      "stateMutability": "view",
      "type": "function",
      "constant": true
    },
    {
      "inputs": [
        {
          "internalType": "address",
          "name": "owner",
          "type": "address"
        },
        {
          "internalType": "address",
          "name": "operator",
          "type": "address"
        }
      ],
      "name": "isApprovedForAll",
      "outputs": [
        {
          "internalType": "bool",
          "name": "",
          "type": "bool"
        }
      ],
      "stateMutability": "view",
      "type": "function",
      "constant": true
    },
    {
      "inputs": [],
      "name": "name",
      "outputs": [
        {
          "internalType": "string",
          "name": "",
          "type": "string"
        }
      ],
      "stateMutability": "view",
      "type": "function",
      "constant": true
    },
    {
      "inputs": [],
      "name": "owner",
      "outputs": [
        {
          "internalType": "address",
          "name": "",
          "type": "address"
        }
      ],
      "stateMutability": "view",
      "type": "function",
      "constant": true
    },
    {
      "inputs": [
        {
          "internalType": "uint256",
          "name": "tokenId",
          "type": "uint256"
        }
      ],
      "name": "ownerOf",
      "outputs": [
        {
          "internalType": "address",
          "name": "",
          "type": "address"
        }
      ],
      "stateMutability": "view",
      "type": "function",
      "constant": true
    },
    {
      "inputs": [],
      "name": "renounceOwnership",
      "outputs": [],
      "stateMutability": "nonpayable",
      "type": "function"
    },
    {
      "inputs": [
        {
          "internalType": "address",
          "name": "from",
          "type": "address"
        },
        {
          "internalType": "address",
          "name": "to",
          "type": "address"
        },
        {
          "internalType": "uint256",
          "name": "tokenId",
          "type": "uint256"
        }
      ],
      "name": "safeTransferFrom",
      "outputs": [],
      "stateMutability": "nonpayable",
      "type": "function"
    },
    {
      "inputs": [
        {
          "internalType": "address",
          "name": "from",
          "type": "address"
        },
        {
          "internalType": "address",
          "name": "to",
          "type": "address"
        },
        {
          "internalType": "uint256",
          "name": "tokenId",
          "type": "uint256"
        },
        {
          "internalType": "bytes",
          "name": "_data",
          "type": "bytes"
        }
      ],
      "name": "safeTransferFrom",
      "outputs": [],
      "stateMutability": "nonpayable",
      "type": "function"
    },
    {
      "inputs": [
        {
          "internalType": "address",
          "name": "operator",
          "type": "address"
        },
        {
          "internalType": "bool",
          "name": "approved",
          "type": "bool"
        }
      ],
      "name": "setApprovalForAll",
      "outputs": [],
      "stateMutability": "nonpayable",
      "type": "function"
    },
    {
      "inputs": [
        {
          "internalType": "bytes4",
          "name": "interfaceId",
          "type": "bytes4"
        }
      ],
      "name": "supportsInterface",
      "outputs": [
        {
          "internalType": "bool",
          "name": "",
          "type": "bool"
        }
      ],
      "stateMutability": "view",
      "type": "function",
      "constant": true
    },
    {
      "inputs": [],
      "name": "symbol",
      "outputs": [
        {
          "internalType": "string",
          "name": "",
          "type": "string"
        }
      ],
      "stateMutability": "view",
      "type": "function",
      "constant": true
    },
    {
      "inputs": [
        {
          "internalType": "address",
          "name": "from",
          "type": "address"
        },
        {
          "internalType": "address",
          "name": "to",
          "type": "address"
        },
        {
          "internalType": "uint256",
          "name": "tokenId",
          "type": "uint256"
        }
      ],
      "name": "transferFrom",
      "outputs": [],
      "stateMutability": "nonpayable",
      "type": "function"
    },
    {
      "inputs": [
        {
          "internalType": "address",
          "name": "newOwner",
          "type": "address"
        }
      ],
      "name": "transferOwnership",
      "outputs": [],
      "stateMutability": "nonpayable",
      "type": "function"
    },
    {
      "inputs": [
        {
          "internalType": "string",
          "name": "baseURI_",
          "type": "string"
        }
      ],
      "name": "setBaseURI",
      "outputs": [],
      "stateMutability": "nonpayable",
      "type": "function"
    },
    {
      "inputs": [
        {
          "internalType": "uint256",
          "name": "tokenId",
          "type": "uint256"
        }
      ],
      "name": "tokenURI",
      "outputs": [
        {
          "internalType": "string",
          "name": "",
          "type": "string"
        }
      ],
      "stateMutability": "view",
      "type": "function",
      "constant": true
    },
    {
      "inputs": [
        {
          "internalType": "string",
          "name": "tokenURIs",
          "type": "string"
        }
      ],
      "name": "claimItem",
      "outputs": [
        {
          "internalType": "uint256",
          "name": "",
          "type": "uint256"
        }
      ],
      "stateMutability": "nonpayable",
      "type": "function"
    },
    {
      "inputs": [],
      "name": "totalSupply",
      "outputs": [
        {
          "internalType": "uint256",
          "name": "",
          "type": "uint256"
        }
      ],
      "stateMutability": "view",
      "type": "function",
      "constant": true
    }
  ],
  "bytecode": "0x60806040523480156200001157600080fd5b506040518060400160405280600e81526020017f617274436f6c6c65637469626c650000000000000000000000000000000000008152506040518060400160405280600481526020017f41525443000000000000000000000000000000000000000000000000000000008152506200009e62000092620000d860201b60201c565b620000e060201b60201c565b8160019080519060200190620000b6929190620001a4565b508060029080519060200190620000cf929190620001a4565b505050620002b9565b600033905090565b60008060009054906101000a900473ffffffffffffffffffffffffffffffffffffffff169050816000806101000a81548173ffffffffffffffffffffffffffffffffffffffff021916908373ffffffffffffffffffffffffffffffffffffffff1602179055508173ffffffffffffffffffffffffffffffffffffffff168173ffffffffffffffffffffffffffffffffffffffff167f8be0079c531659141344cd1fd0a4f28419497f9722a3daafe3b4186f6b6457e060405160405180910390a35050565b828054620001b29062000254565b90600052602060002090601f016020900481019282620001d6576000855562000222565b82601f10620001f157805160ff191683800117855562000222565b8280016001018555821562000222579182015b828111156200022157825182559160200191906001019062000204565b5b50905062000231919062000235565b5090565b5b808211156200025057600081600090555060010162000236565b5090565b600060028204905060018216806200026d57607f821691505b602082108114156200028457620002836200028a565b5b50919050565b7f4e487b7100000000000000000000000000000000000000000000000000000000600052602260045260246000fd5b61306080620002c96000396000f3fe608060405234801561001057600080fd5b50600436106101215760003560e01c806370a08231116100ad578063a850e8bd11610071578063a850e8bd146102f4578063b88d4fde14610324578063c87b56dd14610340578063e985e9c514610370578063f2fde38b146103a057610121565b806370a0823114610262578063715018a6146102925780638da5cb5b1461029c57806395d89b41146102ba578063a22cb465146102d857610121565b806318160ddd116100f457806318160ddd146101c057806323b872dd146101de57806342842e0e146101fa57806355f804b3146102165780636352211e1461023257610121565b806301ffc9a71461012657806306fdde0314610156578063081812fc14610174578063095ea7b3146101a4575b600080fd5b610140600480360381019061013b9190612009565b6103bc565b60405161014d9190612487565b60405180910390f35b61015e61049e565b60405161016b91906124a2565b60405180910390f35b61018e600480360381019061018991906120ac565b610530565b60405161019b9190612420565b60405180910390f35b6101be60048036038101906101b99190611fc9565b6105b5565b005b6101c86106cd565b6040516101d591906126e4565b60405180910390f35b6101f860048036038101906101f39190611eb3565b6106de565b005b610214600480360381019061020f9190611eb3565b61073e565b005b610230600480360381019061022b9190612063565b61075e565b005b61024c600480360381019061024791906120ac565b6107f4565b6040516102599190612420565b60405180910390f35b61027c60048036038101906102779190611e46565b6108a6565b60405161028991906126e4565b60405180910390f35b61029a61095e565b005b6102a46109e6565b6040516102b19190612420565b60405180910390f35b6102c2610a0f565b6040516102cf91906124a2565b60405180910390f35b6102f260048036038101906102ed9190611f89565b610aa1565b005b61030e60048036038101906103099190612063565b610ab7565b60405161031b91906126e4565b60405180910390f35b61033e60048036038101906103399190611f06565b610aee565b005b61035a600480360381019061035591906120ac565b610b50565b60405161036791906124a2565b60405180910390f35b61038a60048036038101906103859190611e73565b610cc3565b6040516103979190612487565b60405180910390f35b6103ba60048036038101906103b59190611e46565b610d57565b005b60007f80ac58cd000000000000000000000000000000000000000000000000000000007bffffffffffffffffffffffffffffffffffffffffffffffffffffffff1916827bffffffffffffffffffffffffffffffffffffffffffffffffffffffff1916148061048757507f5b5e139f000000000000000000000000000000000000000000000000000000007bffffffffffffffffffffffffffffffffffffffffffffffffffffffff1916827bffffffffffffffffffffffffffffffffffffffffffffffffffffffff1916145b80610497575061049682610e4f565b5b9050919050565b6060600180546104ad9061293a565b80601f01602080910402602001604051908101604052809291908181526020018280546104d99061293a565b80156105265780601f106104fb57610100808354040283529160200191610526565b820191906000526020600020905b81548152906001019060200180831161050957829003601f168201915b5050505050905090565b600061053b82610eb9565b61057a576040517f08c379a000000000000000000000000000000000000000000000000000000000815260040161057190612624565b60405180910390fd5b6005600083815260200190815260200160002060009054906101000a900473ffffffffffffffffffffffffffffffffffffffff169050919050565b60006105c0826107f4565b90508073ffffffffffffffffffffffffffffffffffffffff168373ffffffffffffffffffffffffffffffffffffffff161415610631576040517f08c379a0000000000000000000000000000000000000000000000000000000008152600401610628906126a4565b60405180910390fd5b8073ffffffffffffffffffffffffffffffffffffffff16610650610f25565b73ffffffffffffffffffffffffffffffffffffffff16148061067f575061067e81610679610f25565b610cc3565b5b6106be576040517f08c379a00000000000000000000000000000000000000000000000000000000081526004016106b5906125a4565b60405180910390fd5b6106c88383610f2d565b505050565b60006106d96007610fe6565b905090565b6106ef6106e9610f25565b82610ff4565b61072e576040517f08c379a0000000000000000000000000000000000000000000000000000000008152600401610725906126c4565b60405180910390fd5b6107398383836110d2565b505050565b61075983838360405180602001604052806000815250610aee565b505050565b610766610f25565b73ffffffffffffffffffffffffffffffffffffffff166107846109e6565b73ffffffffffffffffffffffffffffffffffffffff16146107da576040517f08c379a00000000000000000000000000000000000000000000000000000000081526004016107d190612664565b60405180910390fd5b80600990805190602001906107f0929190611c5a565b5050565b6000806003600084815260200190815260200160002060009054906101000a900473ffffffffffffffffffffffffffffffffffffffff169050600073ffffffffffffffffffffffffffffffffffffffff168173ffffffffffffffffffffffffffffffffffffffff16141561089d576040517f08c379a0000000000000000000000000000000000000000000000000000000008152600401610894906125e4565b60405180910390fd5b80915050919050565b60008073ffffffffffffffffffffffffffffffffffffffff168273ffffffffffffffffffffffffffffffffffffffff161415610917576040517f08c379a000000000000000000000000000000000000000000000000000000000815260040161090e906125c4565b60405180910390fd5b600460008373ffffffffffffffffffffffffffffffffffffffff1673ffffffffffffffffffffffffffffffffffffffff168152602001908152602001600020549050919050565b610966610f25565b73ffffffffffffffffffffffffffffffffffffffff166109846109e6565b73ffffffffffffffffffffffffffffffffffffffff16146109da576040517f08c379a00000000000000000000000000000000000000000000000000000000081526004016109d190612664565b60405180910390fd5b6109e46000611339565b565b60008060009054906101000a900473ffffffffffffffffffffffffffffffffffffffff16905090565b606060028054610a1e9061293a565b80601f0160208091040260200160405190810160405280929190818152602001828054610a4a9061293a565b8015610a975780601f10610a6c57610100808354040283529160200191610a97565b820191906000526020600020905b815481529060010190602001808311610a7a57829003601f168201915b5050505050905090565b610ab3610aac610f25565b83836113fd565b5050565b6000610ac3600761156a565b6000610acf6007610fe6565b9050610adb3382611580565b610ae5818461159e565b80915050919050565b610aff610af9610f25565b83610ff4565b610b3e576040517f08c379a0000000000000000000000000000000000000000000000000000000008152600401610b35906126c4565b60405180910390fd5b610b4a84848484611612565b50505050565b6060610b5b82610eb9565b610b9a576040517f08c379a0000000000000000000000000000000000000000000000000000000008152600401610b9190612684565b60405180910390fd5b6000600860008481526020019081526020016000208054610bba9061293a565b80601f0160208091040260200160405190810160405280929190818152602001828054610be69061293a565b8015610c335780601f10610c0857610100808354040283529160200191610c33565b820191906000526020600020905b815481529060010190602001808311610c1657829003601f168201915b505050505090506000610c4461166e565b9050600081511415610c5a578192505050610cbe565b600082511115610c8f578082604051602001610c779291906123fc565b60405160208183030381529060405292505050610cbe565b80610c9985611700565b604051602001610caa9291906123fc565b604051602081830303815290604052925050505b919050565b6000600660008473ffffffffffffffffffffffffffffffffffffffff1673ffffffffffffffffffffffffffffffffffffffff16815260200190815260200160002060008373ffffffffffffffffffffffffffffffffffffffff1673ffffffffffffffffffffffffffffffffffffffff16815260200190815260200160002060009054906101000a900460ff16905092915050565b610d5f610f25565b73ffffffffffffffffffffffffffffffffffffffff16610d7d6109e6565b73ffffffffffffffffffffffffffffffffffffffff1614610dd3576040517f08c379a0000000000000000000000000000000000000000000000000000000008152600401610dca90612664565b60405180910390fd5b600073ffffffffffffffffffffffffffffffffffffffff168173ffffffffffffffffffffffffffffffffffffffff161415610e43576040517f08c379a0000000000000000000000000000000000000000000000000000000008152600401610e3a906124e4565b60405180910390fd5b610e4c81611339565b50565b60007f01ffc9a7000000000000000000000000000000000000000000000000000000007bffffffffffffffffffffffffffffffffffffffffffffffffffffffff1916827bffffffffffffffffffffffffffffffffffffffffffffffffffffffff1916149050919050565b60008073ffffffffffffffffffffffffffffffffffffffff166003600084815260200190815260200160002060009054906101000a900473ffffffffffffffffffffffffffffffffffffffff1673ffffffffffffffffffffffffffffffffffffffff1614159050919050565b600033905090565b816005600083815260200190815260200160002060006101000a81548173ffffffffffffffffffffffffffffffffffffffff021916908373ffffffffffffffffffffffffffffffffffffffff160217905550808273ffffffffffffffffffffffffffffffffffffffff16610fa0836107f4565b73ffffffffffffffffffffffffffffffffffffffff167f8c5be1e5ebec7d5bd14f71427d1e84f3dd0314c0f7b2291e5b200ac8c7c3b92560405160405180910390a45050565b600081600001549050919050565b6000610fff82610eb9565b61103e576040517f08c379a000000000000000000000000000000000000000000000000000000000815260040161103590612584565b60405180910390fd5b6000611049836107f4565b90508073ffffffffffffffffffffffffffffffffffffffff168473ffffffffffffffffffffffffffffffffffffffff1614806110b857508373ffffffffffffffffffffffffffffffffffffffff166110a084610530565b73ffffffffffffffffffffffffffffffffffffffff16145b806110c957506110c88185610cc3565b5b91505092915050565b8273ffffffffffffffffffffffffffffffffffffffff166110f2826107f4565b73ffffffffffffffffffffffffffffffffffffffff1614611148576040517f08c379a000000000000000000000000000000000000000000000000000000000815260040161113f90612504565b60405180910390fd5b600073ffffffffffffffffffffffffffffffffffffffff168273ffffffffffffffffffffffffffffffffffffffff1614156111b8576040517f08c379a00000000000000000000000000000000000000000000000000000000081526004016111af90612544565b60405180910390fd5b6111c3838383611861565b6111ce600082610f2d565b6001600460008573ffffffffffffffffffffffffffffffffffffffff1673ffffffffffffffffffffffffffffffffffffffff168152602001908152602001600020600082825461121e9190612850565b925050819055506001600460008473ffffffffffffffffffffffffffffffffffffffff1673ffffffffffffffffffffffffffffffffffffffff168152602001908152602001600020600082825461127591906127c9565b92505081905550816003600083815260200190815260200160002060006101000a81548173ffffffffffffffffffffffffffffffffffffffff021916908373ffffffffffffffffffffffffffffffffffffffff160217905550808273ffffffffffffffffffffffffffffffffffffffff168473ffffffffffffffffffffffffffffffffffffffff167fddf252ad1be2c89b69c2b068fc378daa952ba7f163c4a11628f55a4df523b3ef60405160405180910390a4611334838383611866565b505050565b60008060009054906101000a900473ffffffffffffffffffffffffffffffffffffffff169050816000806101000a81548173ffffffffffffffffffffffffffffffffffffffff021916908373ffffffffffffffffffffffffffffffffffffffff1602179055508173ffffffffffffffffffffffffffffffffffffffff168173ffffffffffffffffffffffffffffffffffffffff167f8be0079c531659141344cd1fd0a4f28419497f9722a3daafe3b4186f6b6457e060405160405180910390a35050565b8173ffffffffffffffffffffffffffffffffffffffff168373ffffffffffffffffffffffffffffffffffffffff16141561146c576040517f08c379a000000000000000000000000000000000000000000000000000000000815260040161146390612564565b60405180910390fd5b80600660008573ffffffffffffffffffffffffffffffffffffffff1673ffffffffffffffffffffffffffffffffffffffff16815260200190815260200160002060008473ffffffffffffffffffffffffffffffffffffffff1673ffffffffffffffffffffffffffffffffffffffff16815260200190815260200160002060006101000a81548160ff0219169083151502179055508173ffffffffffffffffffffffffffffffffffffffff168373ffffffffffffffffffffffffffffffffffffffff167f17307eab39ab6107e8899845ad3d59bd9653f200f220920489ca2b5937696c318360405161155d9190612487565b60405180910390a3505050565b6001816000016000828254019250508190555050565b61159a82826040518060200160405280600081525061186b565b5050565b6115a782610eb9565b6115e6576040517f08c379a00000000000000000000000000000000000000000000000000000000081526004016115dd90612644565b60405180910390fd5b8060086000848152602001908152602001600020908051906020019061160d929190611c5a565b505050565b61161d8484846110d2565b611629848484846118c6565b611668576040517f08c379a000000000000000000000000000000000000000000000000000000000815260040161165f906124c4565b60405180910390fd5b50505050565b60606009805461167d9061293a565b80601f01602080910402602001604051908101604052809291908181526020018280546116a99061293a565b80156116f65780601f106116cb576101008083540402835291602001916116f6565b820191906000526020600020905b8154815290600101906020018083116116d957829003601f168201915b5050505050905090565b60606000821415611748576040518060400160405280600181526020017f3000000000000000000000000000000000000000000000000000000000000000815250905061185c565b600082905060005b6000821461177a5780806117639061299d565b915050600a82611773919061281f565b9150611750565b60008167ffffffffffffffff81111561179657611795612ad3565b5b6040519080825280601f01601f1916602001820160405280156117c85781602001600182028036833780820191505090505b5090505b60008514611855576001826117e19190612850565b9150600a856117f091906129e6565b60306117fc91906127c9565b60f81b81838151811061181257611811612aa4565b5b60200101907effffffffffffffffffffffffffffffffffffffffffffffffffffffffffffff1916908160001a905350600a8561184e919061281f565b94506117cc565b8093505050505b919050565b505050565b505050565b6118758383611a5d565b61188260008484846118c6565b6118c1576040517f08c379a00000000000000000000000000000000000000000000000000000000081526004016118b8906124c4565b60405180910390fd5b505050565b60006118e78473ffffffffffffffffffffffffffffffffffffffff16611c37565b15611a50578373ffffffffffffffffffffffffffffffffffffffff1663150b7a02611910610f25565b8786866040518563ffffffff1660e01b8152600401611932949392919061243b565b602060405180830381600087803b15801561194c57600080fd5b505af192505050801561197d57506040513d601f19601f8201168201806040525081019061197a9190612036565b60015b611a00573d80600081146119ad576040519150601f19603f3d011682016040523d82523d6000602084013e6119b2565b606091505b506000815114156119f8576040517f08c379a00000000000000000000000000000000000000000000000000000000081526004016119ef906124c4565b60405180910390fd5b805181602001fd5b63150b7a0260e01b7bffffffffffffffffffffffffffffffffffffffffffffffffffffffff1916817bffffffffffffffffffffffffffffffffffffffffffffffffffffffff191614915050611a55565b600190505b949350505050565b600073ffffffffffffffffffffffffffffffffffffffff168273ffffffffffffffffffffffffffffffffffffffff161415611acd576040517f08c379a0000000000000000000000000000000000000000000000000000000008152600401611ac490612604565b60405180910390fd5b611ad681610eb9565b15611b16576040517f08c379a0000000000000000000000000000000000000000000000000000000008152600401611b0d90612524565b60405180910390fd5b611b2260008383611861565b6001600460008473ffffffffffffffffffffffffffffffffffffffff1673ffffffffffffffffffffffffffffffffffffffff1681526020019081526020016000206000828254611b7291906127c9565b92505081905550816003600083815260200190815260200160002060006101000a81548173ffffffffffffffffffffffffffffffffffffffff021916908373ffffffffffffffffffffffffffffffffffffffff160217905550808273ffffffffffffffffffffffffffffffffffffffff16600073ffffffffffffffffffffffffffffffffffffffff167fddf252ad1be2c89b69c2b068fc378daa952ba7f163c4a11628f55a4df523b3ef60405160405180910390a4611c3360008383611866565b5050565b6000808273ffffffffffffffffffffffffffffffffffffffff163b119050919050565b828054611c669061293a565b90600052602060002090601f016020900481019282611c885760008555611ccf565b82601f10611ca157805160ff1916838001178555611ccf565b82800160010185558215611ccf579182015b82811115611cce578251825591602001919060010190611cb3565b5b509050611cdc9190611ce0565b5090565b5b80821115611cf9576000816000905550600101611ce1565b5090565b6000611d10611d0b84612724565b6126ff565b905082815260208101848484011115611d2c57611d2b612b07565b5b611d378482856128f8565b509392505050565b6000611d52611d4d84612755565b6126ff565b905082815260208101848484011115611d6e57611d6d612b07565b5b611d798482856128f8565b509392505050565b600081359050611d9081612fce565b92915050565b600081359050611da581612fe5565b92915050565b600081359050611dba81612ffc565b92915050565b600081519050611dcf81612ffc565b92915050565b600082601f830112611dea57611de9612b02565b5b8135611dfa848260208601611cfd565b91505092915050565b600082601f830112611e1857611e17612b02565b5b8135611e28848260208601611d3f565b91505092915050565b600081359050611e4081613013565b92915050565b600060208284031215611e5c57611e5b612b11565b5b6000611e6a84828501611d81565b91505092915050565b60008060408385031215611e8a57611e89612b11565b5b6000611e9885828601611d81565b9250506020611ea985828601611d81565b9150509250929050565b600080600060608486031215611ecc57611ecb612b11565b5b6000611eda86828701611d81565b9350506020611eeb86828701611d81565b9250506040611efc86828701611e31565b9150509250925092565b60008060008060808587031215611f2057611f1f612b11565b5b6000611f2e87828801611d81565b9450506020611f3f87828801611d81565b9350506040611f5087828801611e31565b925050606085013567ffffffffffffffff811115611f7157611f70612b0c565b5b611f7d87828801611dd5565b91505092959194509250565b60008060408385031215611fa057611f9f612b11565b5b6000611fae85828601611d81565b9250506020611fbf85828601611d96565b9150509250929050565b60008060408385031215611fe057611fdf612b11565b5b6000611fee85828601611d81565b9250506020611fff85828601611e31565b9150509250929050565b60006020828403121561201f5761201e612b11565b5b600061202d84828501611dab565b91505092915050565b60006020828403121561204c5761204b612b11565b5b600061205a84828501611dc0565b91505092915050565b60006020828403121561207957612078612b11565b5b600082013567ffffffffffffffff81111561209757612096612b0c565b5b6120a384828501611e03565b91505092915050565b6000602082840312156120c2576120c1612b11565b5b60006120d084828501611e31565b91505092915050565b6120e281612884565b82525050565b6120f181612896565b82525050565b600061210282612786565b61210c818561279c565b935061211c818560208601612907565b61212581612b16565b840191505092915050565b600061213b82612791565b61214581856127ad565b9350612155818560208601612907565b61215e81612b16565b840191505092915050565b600061217482612791565b61217e81856127be565b935061218e818560208601612907565b80840191505092915050565b60006121a76032836127ad565b91506121b282612b27565b604082019050919050565b60006121ca6026836127ad565b91506121d582612b76565b604082019050919050565b60006121ed6025836127ad565b91506121f882612bc5565b604082019050919050565b6000612210601c836127ad565b915061221b82612c14565b602082019050919050565b60006122336024836127ad565b915061223e82612c3d565b604082019050919050565b60006122566019836127ad565b915061226182612c8c565b602082019050919050565b6000612279602c836127ad565b915061228482612cb5565b604082019050919050565b600061229c6038836127ad565b91506122a782612d04565b604082019050919050565b60006122bf602a836127ad565b91506122ca82612d53565b604082019050919050565b60006122e26029836127ad565b91506122ed82612da2565b604082019050919050565b60006123056020836127ad565b915061231082612df1565b602082019050919050565b6000612328602c836127ad565b915061233382612e1a565b604082019050919050565b600061234b602c836127ad565b915061235682612e69565b604082019050919050565b600061236e6020836127ad565b915061237982612eb8565b602082019050919050565b6000612391602f836127ad565b915061239c82612ee1565b604082019050919050565b60006123b46021836127ad565b91506123bf82612f30565b604082019050919050565b60006123d76031836127ad565b91506123e282612f7f565b604082019050919050565b6123f6816128ee565b82525050565b60006124088285612169565b91506124148284612169565b91508190509392505050565b600060208201905061243560008301846120d9565b92915050565b600060808201905061245060008301876120d9565b61245d60208301866120d9565b61246a60408301856123ed565b818103606083015261247c81846120f7565b905095945050505050565b600060208201905061249c60008301846120e8565b92915050565b600060208201905081810360008301526124bc8184612130565b905092915050565b600060208201905081810360008301526124dd8161219a565b9050919050565b600060208201905081810360008301526124fd816121bd565b9050919050565b6000602082019050818103600083015261251d816121e0565b9050919050565b6000602082019050818103600083015261253d81612203565b9050919050565b6000602082019050818103600083015261255d81612226565b9050919050565b6000602082019050818103600083015261257d81612249565b9050919050565b6000602082019050818103600083015261259d8161226c565b9050919050565b600060208201905081810360008301526125bd8161228f565b9050919050565b600060208201905081810360008301526125dd816122b2565b9050919050565b600060208201905081810360008301526125fd816122d5565b9050919050565b6000602082019050818103600083015261261d816122f8565b9050919050565b6000602082019050818103600083015261263d8161231b565b9050919050565b6000602082019050818103600083015261265d8161233e565b9050919050565b6000602082019050818103600083015261267d81612361565b9050919050565b6000602082019050818103600083015261269d81612384565b9050919050565b600060208201905081810360008301526126bd816123a7565b9050919050565b600060208201905081810360008301526126dd816123ca565b9050919050565b60006020820190506126f960008301846123ed565b92915050565b600061270961271a565b9050612715828261296c565b919050565b6000604051905090565b600067ffffffffffffffff82111561273f5761273e612ad3565b5b61274882612b16565b9050602081019050919050565b600067ffffffffffffffff8211156127705761276f612ad3565b5b61277982612b16565b9050602081019050919050565b600081519050919050565b600081519050919050565b600082825260208201905092915050565b600082825260208201905092915050565b600081905092915050565b60006127d4826128ee565b91506127df836128ee565b9250827fffffffffffffffffffffffffffffffffffffffffffffffffffffffffffffffff0382111561281457612813612a17565b5b828201905092915050565b600061282a826128ee565b9150612835836128ee565b92508261284557612844612a46565b5b828204905092915050565b600061285b826128ee565b9150612866836128ee565b92508282101561287957612878612a17565b5b828203905092915050565b600061288f826128ce565b9050919050565b60008115159050919050565b60007fffffffff0000000000000000000000000000000000000000000000000000000082169050919050565b600073ffffffffffffffffffffffffffffffffffffffff82169050919050565b6000819050919050565b82818337600083830152505050565b60005b8381101561292557808201518184015260208101905061290a565b83811115612934576000848401525b50505050565b6000600282049050600182168061295257607f821691505b6020821081141561296657612965612a75565b5b50919050565b61297582612b16565b810181811067ffffffffffffffff8211171561299457612993612ad3565b5b80604052505050565b60006129a8826128ee565b91507fffffffffffffffffffffffffffffffffffffffffffffffffffffffffffffffff8214156129db576129da612a17565b5b600182019050919050565b60006129f1826128ee565b91506129fc836128ee565b925082612a0c57612a0b612a46565b5b828206905092915050565b7f4e487b7100000000000000000000000000000000000000000000000000000000600052601160045260246000fd5b7f4e487b7100000000000000000000000000000000000000000000000000000000600052601260045260246000fd5b7f4e487b7100000000000000000000000000000000000000000000000000000000600052602260045260246000fd5b7f4e487b7100000000000000000000000000000000000000000000000000000000600052603260045260246000fd5b7f4e487b7100000000000000000000000000000000000000000000000000000000600052604160045260246000fd5b600080fd5b600080fd5b600080fd5b600080fd5b6000601f19601f8301169050919050565b7f4552433732313a207472616e7366657220746f206e6f6e20455243373231526560008201527f63656976657220696d706c656d656e7465720000000000000000000000000000602082015250565b7f4f776e61626c653a206e6577206f776e657220697320746865207a65726f206160008201527f6464726573730000000000000000000000000000000000000000000000000000602082015250565b7f4552433732313a207472616e736665722066726f6d20696e636f72726563742060008201527f6f776e6572000000000000000000000000000000000000000000000000000000602082015250565b7f4552433732313a20746f6b656e20616c7265616479206d696e74656400000000600082015250565b7f4552433732313a207472616e7366657220746f20746865207a65726f2061646460008201527f7265737300000000000000000000000000000000000000000000000000000000602082015250565b7f4552433732313a20617070726f766520746f2063616c6c657200000000000000600082015250565b7f4552433732313a206f70657261746f7220717565727920666f72206e6f6e657860008201527f697374656e7420746f6b656e0000000000000000000000000000000000000000602082015250565b7f4552433732313a20617070726f76652063616c6c6572206973206e6f74206f7760008201527f6e6572206e6f7220617070726f76656420666f7220616c6c0000000000000000602082015250565b7f4552433732313a2062616c616e636520717565727920666f7220746865207a6560008201527f726f206164647265737300000000000000000000000000000000000000000000602082015250565b7f4552433732313a206f776e657220717565727920666f72206e6f6e657869737460008201527f656e7420746f6b656e0000000000000000000000000000000000000000000000602082015250565b7f4552433732313a206d696e7420746f20746865207a65726f2061646472657373600082015250565b7f4552433732313a20617070726f76656420717565727920666f72206e6f6e657860008201527f697374656e7420746f6b656e0000000000000000000000000000000000000000602082015250565b7f4552433732314d657461646174613a2055524920736574206f66206e6f6e657860008201527f697374656e7420746f6b656e0000000000000000000000000000000000000000602082015250565b7f4f776e61626c653a2063616c6c6572206973206e6f7420746865206f776e6572600082015250565b7f4552433732314d657461646174613a2055524920717565727920666f72206e6f60008201527f6e6578697374656e7420746f6b656e0000000000000000000000000000000000602082015250565b7f4552433732313a20617070726f76616c20746f2063757272656e74206f776e6560008201527f7200000000000000000000000000000000000000000000000000000000000000602082015250565b7f4552433732313a207472616e736665722063616c6c6572206973206e6f74206f60008201527f776e6572206e6f7220617070726f766564000000000000000000000000000000602082015250565b612fd781612884565b8114612fe257600080fd5b50565b612fee81612896565b8114612ff957600080fd5b50565b613005816128a2565b811461301057600080fd5b50565b61301c816128ee565b811461302757600080fd5b5056fea2646970667358221220333e68cff71f34cf0952379929c4327e8fc346e64f5ec4fb92804fa7c07b89da64736f6c63430008070033",
  "immutableReferences": {},
  "source": "// SPDX-License-Identifier: MIT\r\npragma solidity >=0.4.22 <0.9.0;\r\n\r\nimport \"@openzeppelin/contracts/token/ERC721/ERC721.sol\";\r\nimport \"@openzeppelin/contracts/utils/Counters.sol\";\r\nimport \"@openzeppelin/contracts/access/Ownable.sol\";\r\n\r\ncontract ArtCollectible is Ownable, ERC721 {\r\n    using Counters for Counters.Counter;\r\n    Counters.Counter private _tokenIds;\r\n    using Strings for uint256;\r\n    // Optional mapping for token URIs\r\n    mapping(uint256 => string) private _tokenURIs;\r\n\r\n    // Base URI\r\n    string private _baseURIextended;\r\n\r\n    constructor()  ERC721(\"artCollectible\", \"ARTC\") {}\r\n\r\n    // https://forum.openzeppelin.com/t/function-settokenuri-in-erc721-is-gone-with-pragma-0-8-0/5978/3\r\n    function setBaseURI(string memory baseURI_) external onlyOwner {\r\n        _baseURIextended = baseURI_;\r\n    }\r\n\r\n    function _setTokenURI(uint256 tokenId, string memory _tokenURI)\r\n        internal\r\n        virtual\r\n    {\r\n        require(\r\n            _exists(tokenId),\r\n            \"ERC721Metadata: URI set of nonexistent token\"\r\n        );\r\n        _tokenURIs[tokenId] = _tokenURI;\r\n    }\r\n\r\n    function _baseURI() internal view virtual override returns (string memory) {\r\n        return _baseURIextended;\r\n    }\r\n\r\n    function tokenURI(uint256 tokenId)\r\n        public\r\n        view\r\n        virtual\r\n        override\r\n        returns (string memory)\r\n    {\r\n        require(\r\n            _exists(tokenId),\r\n            \"ERC721Metadata: URI query for nonexistent token\"\r\n        );\r\n\r\n        string memory _tokenURI = _tokenURIs[tokenId];\r\n        string memory base = _baseURI();\r\n\r\n        if (bytes(base).length == 0) {\r\n            return _tokenURI;\r\n        }\r\n        if (bytes(_tokenURI).length > 0) {\r\n            return string(abi.encodePacked(base, _tokenURI));\r\n        }\r\n\r\n        return string(abi.encodePacked(base, tokenId.toString()));\r\n    }\r\n\r\n    function claimItem(string memory tokenURIs) public returns (uint256) {\r\n        _tokenIds.increment();\r\n        uint256 newItemId = _tokenIds.current();\r\n        _safeMint(msg.sender, newItemId);\r\n        _setTokenURI(newItemId, tokenURIs);\r\n        return newItemId;\r\n    }\r\n\r\n    function totalSupply() public view returns (uint256) {\r\n        return _tokenIds.current();\r\n    }\r\n}",
  "sourcePath": "C:\\Users\\kusha\\nft-demo\\contracts\\artCollectible.sol",
  "compiler": {
    "name": "solc",
    "version": "0.8.7+commit.e28d00a7.Emscripten.clang"
  },
  "schemaVersion": "3.4.4",
  "updatedAt": "2022-02-12T20:04:19.746Z",
  "networkType": "ethereum",
  "devdoc": {
    "kind": "dev",
    "methods": {
      "approve(address,uint256)": {
        "details": "See {IERC721-approve}."
      },
      "balanceOf(address)": {
        "details": "See {IERC721-balanceOf}."
      },
      "getApproved(uint256)": {
        "details": "See {IERC721-getApproved}."
      },
      "isApprovedForAll(address,address)": {
        "details": "See {IERC721-isApprovedForAll}."
      },
      "name()": {
        "details": "See {IERC721Metadata-name}."
      },
      "owner()": {
        "details": "Returns the address of the current owner."
      },
      "ownerOf(uint256)": {
        "details": "See {IERC721-ownerOf}."
      },
      "renounceOwnership()": {
        "details": "Leaves the contract without owner. It will not be possible to call `onlyOwner` functions anymore. Can only be called by the current owner. NOTE: Renouncing ownership will leave the contract without an owner, thereby removing any functionality that is only available to the owner."
      },
      "safeTransferFrom(address,address,uint256)": {
        "details": "See {IERC721-safeTransferFrom}."
      },
      "safeTransferFrom(address,address,uint256,bytes)": {
        "details": "See {IERC721-safeTransferFrom}."
      },
      "setApprovalForAll(address,bool)": {
        "details": "See {IERC721-setApprovalForAll}."
      },
      "supportsInterface(bytes4)": {
        "details": "See {IERC165-supportsInterface}."
      },
      "symbol()": {
        "details": "See {IERC721Metadata-symbol}."
      },
      "tokenURI(uint256)": {
        "details": "See {IERC721Metadata-tokenURI}."
      },
      "transferFrom(address,address,uint256)": {
        "details": "See {IERC721-transferFrom}."
      },
      "transferOwnership(address)": {
        "details": "Transfers ownership of the contract to a new account (`newOwner`). Can only be called by the current owner."
      }
    },
    "version": 1
  },
  "userdoc": {
    "kind": "user",
    "methods": {},
    "version": 1
  }
}