{
  "contractName": "nft",
  "abi": [
    {
      "inputs": [],
      "stateMutability": "nonpayable",
      "type": "constructor"
    },
    {
      "anonymous": false,
      "inputs": [
        {
          "indexed": true,
          "internalType": "address",
          "name": "owner",
          "type": "address"
        },
        {
          "indexed": true,
          "internalType": "address",
          "name": "approved",
          "type": "address"
        },
        {
          "indexed": true,
          "internalType": "uint256",
          "name": "tokenId",
          "type": "uint256"
        }
      ],
      "name": "Approval",
      "type": "event"
    },
    {
      "anonymous": false,
      "inputs": [
        {
          "indexed": true,
          "internalType": "address",
          "name": "owner",
          "type": "address"
        },
        {
          "indexed": true,
          "internalType": "address",
          "name": "operator",
          "type": "address"
        },
        {
          "indexed": false,
          "internalType": "bool",
          "name": "approved",
          "type": "bool"
        }
      ],
      "name": "ApprovalForAll",
      "type": "event"
    },
    {
      "anonymous": false,
      "inputs": [
        {
          "indexed": true,
          "internalType": "address",
          "name": "previousOwner",
          "type": "address"
        },
        {
          "indexed": true,
          "internalType": "address",
          "name": "newOwner",
          "type": "address"
        }
      ],
      "name": "OwnershipTransferred",
      "type": "event"
    },
    {
      "anonymous": false,
      "inputs": [
        {
          "indexed": true,
          "internalType": "address",
          "name": "from",
          "type": "address"
        },
        {
          "indexed": true,
          "internalType": "address",
          "name": "to",
          "type": "address"
        },
        {
          "indexed": true,
          "internalType": "uint256",
          "name": "tokenId",
          "type": "uint256"
        }
      ],
      "name": "Transfer",
      "type": "event"
    },
    {
      "inputs": [
        {
          "internalType": "address",
          "name": "to",
          "type": "address"
        },
        {
          "internalType": "uint256",
          "name": "tokenId",
          "type": "uint256"
        }
      ],
      "name": "approve",
      "outputs": [],
      "stateMutability": "nonpayable",
      "type": "function"
    },
    {
      "inputs": [
        {
          "internalType": "address",
          "name": "owner",
          "type": "address"
        }
      ],
      "name": "balanceOf",
      "outputs": [
        {
          "internalType": "uint256",
          "name": "",
          "type": "uint256"
        }
      ],
      "stateMutability": "view",
      "type": "function"
    },
    {
      "inputs": [
        {
          "internalType": "uint256",
          "name": "tokenId",
          "type": "uint256"
        }
      ],
      "name": "getApproved",
      "outputs": [
        {
          "internalType": "address",
          "name": "",
          "type": "address"
        }
      ],
      "stateMutability": "view",
      "type": "function"
    },
    {
      "inputs": [
        {
          "internalType": "address",
          "name": "owner",
          "type": "address"
        },
        {
          "internalType": "address",
          "name": "operator",
          "type": "address"
        }
      ],
      "name": "isApprovedForAll",
      "outputs": [
        {
          "internalType": "bool",
          "name": "",
          "type": "bool"
        }
      ],
      "stateMutability": "view",
      "type": "function"
    },
    {
      "inputs": [],
      "name": "name",
      "outputs": [
        {
          "internalType": "string",
          "name": "",
          "type": "string"
        }
      ],
      "stateMutability": "view",
      "type": "function"
    },
    {
      "inputs": [],
      "name": "owner",
      "outputs": [
        {
          "internalType": "address",
          "name": "",
          "type": "address"
        }
      ],
      "stateMutability": "view",
      "type": "function"
    },
    {
      "inputs": [
        {
          "internalType": "uint256",
          "name": "tokenId",
          "type": "uint256"
        }
      ],
      "name": "ownerOf",
      "outputs": [
        {
          "internalType": "address",
          "name": "",
          "type": "address"
        }
      ],
      "stateMutability": "view",
      "type": "function"
    },
    {
      "inputs": [],
      "name": "renounceOwnership",
      "outputs": [],
      "stateMutability": "nonpayable",
      "type": "function"
    },
    {
      "inputs": [
        {
          "internalType": "address",
          "name": "from",
          "type": "address"
        },
        {
          "internalType": "address",
          "name": "to",
          "type": "address"
        },
        {
          "internalType": "uint256",
          "name": "tokenId",
          "type": "uint256"
        }
      ],
      "name": "safeTransferFrom",
      "outputs": [],
      "stateMutability": "nonpayable",
      "type": "function"
    },
    {
      "inputs": [
        {
          "internalType": "address",
          "name": "from",
          "type": "address"
        },
        {
          "internalType": "address",
          "name": "to",
          "type": "address"
        },
        {
          "internalType": "uint256",
          "name": "tokenId",
          "type": "uint256"
        },
        {
          "internalType": "bytes",
          "name": "_data",
          "type": "bytes"
        }
      ],
      "name": "safeTransferFrom",
      "outputs": [],
      "stateMutability": "nonpayable",
      "type": "function"
    },
    {
      "inputs": [
        {
          "internalType": "address",
          "name": "operator",
          "type": "address"
        },
        {
          "internalType": "bool",
          "name": "approved",
          "type": "bool"
        }
      ],
      "name": "setApprovalForAll",
      "outputs": [],
      "stateMutability": "nonpayable",
      "type": "function"
    },
    {
      "inputs": [
        {
          "internalType": "bytes4",
          "name": "interfaceId",
          "type": "bytes4"
        }
      ],
      "name": "supportsInterface",
      "outputs": [
        {
          "internalType": "bool",
          "name": "",
          "type": "bool"
        }
      ],
      "stateMutability": "view",
      "type": "function"
    },
    {
      "inputs": [],
      "name": "symbol",
      "outputs": [
        {
          "internalType": "string",
          "name": "",
          "type": "string"
        }
      ],
      "stateMutability": "view",
      "type": "function"
    },
    {
      "inputs": [
        {
          "internalType": "address",
          "name": "from",
          "type": "address"
        },
        {
          "internalType": "address",
          "name": "to",
          "type": "address"
        },
        {
          "internalType": "uint256",
          "name": "tokenId",
          "type": "uint256"
        }
      ],
      "name": "transferFrom",
      "outputs": [],
      "stateMutability": "nonpayable",
      "type": "function"
    },
    {
      "inputs": [
        {
          "internalType": "address",
          "name": "newOwner",
          "type": "address"
        }
      ],
      "name": "transferOwnership",
      "outputs": [],
      "stateMutability": "nonpayable",
      "type": "function"
    },
    {
      "inputs": [
        {
          "internalType": "uint256",
          "name": "tokenId",
          "type": "uint256"
        }
      ],
      "name": "tokenURI",
      "outputs": [
        {
          "internalType": "string",
          "name": "",
          "type": "string"
        }
      ],
      "stateMutability": "view",
      "type": "function"
    },
    {
      "inputs": [
        {
          "internalType": "string",
          "name": "tokenURIs",
          "type": "string"
        }
      ],
      "name": "claimItem",
      "outputs": [
        {
          "internalType": "uint256",
          "name": "",
          "type": "uint256"
        }
      ],
      "stateMutability": "nonpayable",
      "type": "function"
    },
    {
      "inputs": [
        {
          "internalType": "uint256",
          "name": "tokenid",
          "type": "uint256"
        }
      ],
      "name": "burn",
      "outputs": [],
      "stateMutability": "nonpayable",
      "type": "function"
    }
  ],
  "bytecode": "0x608060405260006007553480156200001657600080fd5b506040518060400160405280600381526020017f6e667400000000000000000000000000000000000000000000000000000000008152506040518060400160405280600181526020017f4100000000000000000000000000000000000000000000000000000000000000815250620000a362000097620000dd60201b60201c565b620000e560201b60201c565b8160019080519060200190620000bb929190620001a9565b508060029080519060200190620000d4929190620001a9565b505050620002be565b600033905090565b60008060009054906101000a900473ffffffffffffffffffffffffffffffffffffffff169050816000806101000a81548173ffffffffffffffffffffffffffffffffffffffff021916908373ffffffffffffffffffffffffffffffffffffffff1602179055508173ffffffffffffffffffffffffffffffffffffffff168173ffffffffffffffffffffffffffffffffffffffff167f8be0079c531659141344cd1fd0a4f28419497f9722a3daafe3b4186f6b6457e060405160405180910390a35050565b828054620001b79062000259565b90600052602060002090601f016020900481019282620001db576000855562000227565b82601f10620001f657805160ff191683800117855562000227565b8280016001018555821562000227579182015b828111156200022657825182559160200191906001019062000209565b5b5090506200023691906200023a565b5090565b5b80821115620002555760008160009055506001016200023b565b5090565b600060028204905060018216806200027257607f821691505b602082108114156200028957620002886200028f565b5b50919050565b7f4e487b7100000000000000000000000000000000000000000000000000000000600052602260045260246000fd5b612c2d80620002ce6000396000f3fe608060405234801561001057600080fd5b50600436106101165760003560e01c8063715018a6116100a2578063a850e8bd11610071578063a850e8bd146102cb578063b88d4fde146102fb578063c87b56dd14610317578063e985e9c514610347578063f2fde38b1461037757610116565b8063715018a6146102695780638da5cb5b1461027357806395d89b4114610291578063a22cb465146102af57610116565b806323b872dd116100e957806323b872dd146101b557806342842e0e146101d157806342966c68146101ed5780636352211e1461020957806370a082311461023957610116565b806301ffc9a71461011b57806306fdde031461014b578063081812fc14610169578063095ea7b314610199575b600080fd5b61013560048036038101906101309190611e1a565b610393565b60405161014291906121fd565b60405180910390f35b610153610475565b6040516101609190612218565b60405180910390f35b610183600480360381019061017e9190611ebd565b610507565b6040516101909190612196565b60405180910390f35b6101b360048036038101906101ae9190611dda565b61058c565b005b6101cf60048036038101906101ca9190611cc4565b6106a4565b005b6101eb60048036038101906101e69190611cc4565b610704565b005b61020760048036038101906102029190611ebd565b610724565b005b610223600480360381019061021e9190611ebd565b610841565b6040516102309190612196565b60405180910390f35b610253600480360381019061024e9190611c57565b6108f3565b604051610260919061241a565b60405180910390f35b6102716109ab565b005b61027b610a33565b6040516102889190612196565b60405180910390f35b610299610a5c565b6040516102a69190612218565b60405180910390f35b6102c960048036038101906102c49190611d9a565b610aee565b005b6102e560048036038101906102e09190611e74565b610b04565b6040516102f2919061241a565b60405180910390f35b61031560048036038101906103109190611d17565b610bbb565b005b610331600480360381019061032c9190611ebd565b610c1d565b60405161033e9190612218565b60405180910390f35b610361600480360381019061035c9190611c84565b610d33565b60405161036e91906121fd565b60405180910390f35b610391600480360381019061038c9190611c57565b610dc7565b005b60007f80ac58cd000000000000000000000000000000000000000000000000000000007bffffffffffffffffffffffffffffffffffffffffffffffffffffffff1916827bffffffffffffffffffffffffffffffffffffffffffffffffffffffff1916148061045e57507f5b5e139f000000000000000000000000000000000000000000000000000000007bffffffffffffffffffffffffffffffffffffffffffffffffffffffff1916827bffffffffffffffffffffffffffffffffffffffffffffffffffffffff1916145b8061046e575061046d82610ebf565b5b9050919050565b60606001805461048490612634565b80601f01602080910402602001604051908101604052809291908181526020018280546104b090612634565b80156104fd5780601f106104d2576101008083540402835291602001916104fd565b820191906000526020600020905b8154815290600101906020018083116104e057829003601f168201915b5050505050905090565b600061051282610f29565b610551576040517f08c379a00000000000000000000000000000000000000000000000000000000081526004016105489061239a565b60405180910390fd5b6005600083815260200190815260200160002060009054906101000a900473ffffffffffffffffffffffffffffffffffffffff169050919050565b600061059782610841565b90508073ffffffffffffffffffffffffffffffffffffffff168373ffffffffffffffffffffffffffffffffffffffff161415610608576040517f08c379a00000000000000000000000000000000000000000000000000000000081526004016105ff906123da565b60405180910390fd5b8073ffffffffffffffffffffffffffffffffffffffff16610627610f95565b73ffffffffffffffffffffffffffffffffffffffff161480610656575061065581610650610f95565b610d33565b5b610695576040517f08c379a000000000000000000000000000000000000000000000000000000000815260040161068c9061231a565b60405180910390fd5b61069f8383610f9d565b505050565b6106b56106af610f95565b82611056565b6106f4576040517f08c379a00000000000000000000000000000000000000000000000000000000081526004016106eb906123fa565b60405180910390fd5b6106ff838383611134565b505050565b61071f83838360405180602001604052806000815250610bbb565b505050565b60011515600a600083815260200190815260200160002060009054906101000a900460ff1615151480156107b657506009600082815260200190815260200160002060009054906101000a900473ffffffffffffffffffffffffffffffffffffffff1673ffffffffffffffffffffffffffffffffffffffff163373ffffffffffffffffffffffffffffffffffffffff16145b6107bf57600080fd5b60006009600083815260200190815260200160002060006101000a81548173ffffffffffffffffffffffffffffffffffffffff021916908373ffffffffffffffffffffffffffffffffffffffff1602179055506000600a600083815260200190815260200160002060006101000a81548160ff02191690831515021790555050565b6000806003600084815260200190815260200160002060009054906101000a900473ffffffffffffffffffffffffffffffffffffffff169050600073ffffffffffffffffffffffffffffffffffffffff168173ffffffffffffffffffffffffffffffffffffffff1614156108ea576040517f08c379a00000000000000000000000000000000000000000000000000000000081526004016108e19061235a565b60405180910390fd5b80915050919050565b60008073ffffffffffffffffffffffffffffffffffffffff168273ffffffffffffffffffffffffffffffffffffffff161415610964576040517f08c379a000000000000000000000000000000000000000000000000000000000815260040161095b9061233a565b60405180910390fd5b600460008373ffffffffffffffffffffffffffffffffffffffff1673ffffffffffffffffffffffffffffffffffffffff168152602001908152602001600020549050919050565b6109b3610f95565b73ffffffffffffffffffffffffffffffffffffffff166109d1610a33565b73ffffffffffffffffffffffffffffffffffffffff1614610a27576040517f08c379a0000000000000000000000000000000000000000000000000000000008152600401610a1e906123ba565b60405180910390fd5b610a31600061139b565b565b60008060009054906101000a900473ffffffffffffffffffffffffffffffffffffffff16905090565b606060028054610a6b90612634565b80601f0160208091040260200160405190810160405280929190818152602001828054610a9790612634565b8015610ae45780601f10610ab957610100808354040283529160200191610ae4565b820191906000526020600020905b815481529060010190602001808311610ac757829003601f168201915b5050505050905090565b610b00610af9610f95565b838361145f565b5050565b60008060076000815480929190610b1a90612697565b919050559050610b2a33826115cc565b610b3481846115ea565b336009600083815260200190815260200160002060006101000a81548173ffffffffffffffffffffffffffffffffffffffff021916908373ffffffffffffffffffffffffffffffffffffffff1602179055506001600a600083815260200190815260200160002060006101000a81548160ff02191690831515021790555080915050919050565b610bcc610bc6610f95565b83611056565b610c0b576040517f08c379a0000000000000000000000000000000000000000000000000000000008152600401610c02906123fa565b60405180910390fd5b610c1784848484611616565b50505050565b606060011515600a600084815260200190815260200160002060009054906101000a900460ff1615151415610cf5576000600860008481526020019081526020016000208054610c6c90612634565b80601f0160208091040260200160405190810160405280929190818152602001828054610c9890612634565b8015610ce55780601f10610cba57610100808354040283529160200191610ce5565b820191906000526020600020905b815481529060010190602001808311610cc857829003601f168201915b5050505050905080915050610d2e565b6040518060400160405280600481526020017f6e6f6e650000000000000000000000000000000000000000000000000000000081525090505b919050565b6000600660008473ffffffffffffffffffffffffffffffffffffffff1673ffffffffffffffffffffffffffffffffffffffff16815260200190815260200160002060008373ffffffffffffffffffffffffffffffffffffffff1673ffffffffffffffffffffffffffffffffffffffff16815260200190815260200160002060009054906101000a900460ff16905092915050565b610dcf610f95565b73ffffffffffffffffffffffffffffffffffffffff16610ded610a33565b73ffffffffffffffffffffffffffffffffffffffff1614610e43576040517f08c379a0000000000000000000000000000000000000000000000000000000008152600401610e3a906123ba565b60405180910390fd5b600073ffffffffffffffffffffffffffffffffffffffff168173ffffffffffffffffffffffffffffffffffffffff161415610eb3576040517f08c379a0000000000000000000000000000000000000000000000000000000008152600401610eaa9061225a565b60405180910390fd5b610ebc8161139b565b50565b60007f01ffc9a7000000000000000000000000000000000000000000000000000000007bffffffffffffffffffffffffffffffffffffffffffffffffffffffff1916827bffffffffffffffffffffffffffffffffffffffffffffffffffffffff1916149050919050565b60008073ffffffffffffffffffffffffffffffffffffffff166003600084815260200190815260200160002060009054906101000a900473ffffffffffffffffffffffffffffffffffffffff1673ffffffffffffffffffffffffffffffffffffffff1614159050919050565b600033905090565b816005600083815260200190815260200160002060006101000a81548173ffffffffffffffffffffffffffffffffffffffff021916908373ffffffffffffffffffffffffffffffffffffffff160217905550808273ffffffffffffffffffffffffffffffffffffffff1661101083610841565b73ffffffffffffffffffffffffffffffffffffffff167f8c5be1e5ebec7d5bd14f71427d1e84f3dd0314c0f7b2291e5b200ac8c7c3b92560405160405180910390a45050565b600061106182610f29565b6110a0576040517f08c379a0000000000000000000000000000000000000000000000000000000008152600401611097906122fa565b60405180910390fd5b60006110ab83610841565b90508073ffffffffffffffffffffffffffffffffffffffff168473ffffffffffffffffffffffffffffffffffffffff16148061111a57508373ffffffffffffffffffffffffffffffffffffffff1661110284610507565b73ffffffffffffffffffffffffffffffffffffffff16145b8061112b575061112a8185610d33565b5b91505092915050565b8273ffffffffffffffffffffffffffffffffffffffff1661115482610841565b73ffffffffffffffffffffffffffffffffffffffff16146111aa576040517f08c379a00000000000000000000000000000000000000000000000000000000081526004016111a19061227a565b60405180910390fd5b600073ffffffffffffffffffffffffffffffffffffffff168273ffffffffffffffffffffffffffffffffffffffff16141561121a576040517f08c379a0000000000000000000000000000000000000000000000000000000008152600401611211906122ba565b60405180910390fd5b611225838383611672565b611230600082610f9d565b6001600460008573ffffffffffffffffffffffffffffffffffffffff1673ffffffffffffffffffffffffffffffffffffffff1681526020019081526020016000206000828254611280919061254a565b925050819055506001600460008473ffffffffffffffffffffffffffffffffffffffff1673ffffffffffffffffffffffffffffffffffffffff16815260200190815260200160002060008282546112d791906124f4565b92505081905550816003600083815260200190815260200160002060006101000a81548173ffffffffffffffffffffffffffffffffffffffff021916908373ffffffffffffffffffffffffffffffffffffffff160217905550808273ffffffffffffffffffffffffffffffffffffffff168473ffffffffffffffffffffffffffffffffffffffff167fddf252ad1be2c89b69c2b068fc378daa952ba7f163c4a11628f55a4df523b3ef60405160405180910390a4611396838383611677565b505050565b60008060009054906101000a900473ffffffffffffffffffffffffffffffffffffffff169050816000806101000a81548173ffffffffffffffffffffffffffffffffffffffff021916908373ffffffffffffffffffffffffffffffffffffffff1602179055508173ffffffffffffffffffffffffffffffffffffffff168173ffffffffffffffffffffffffffffffffffffffff167f8be0079c531659141344cd1fd0a4f28419497f9722a3daafe3b4186f6b6457e060405160405180910390a35050565b8173ffffffffffffffffffffffffffffffffffffffff168373ffffffffffffffffffffffffffffffffffffffff1614156114ce576040517f08c379a00000000000000000000000000000000000000000000000000000000081526004016114c5906122da565b60405180910390fd5b80600660008573ffffffffffffffffffffffffffffffffffffffff1673ffffffffffffffffffffffffffffffffffffffff16815260200190815260200160002060008473ffffffffffffffffffffffffffffffffffffffff1673ffffffffffffffffffffffffffffffffffffffff16815260200190815260200160002060006101000a81548160ff0219169083151502179055508173ffffffffffffffffffffffffffffffffffffffff168373ffffffffffffffffffffffffffffffffffffffff167f17307eab39ab6107e8899845ad3d59bd9653f200f220920489ca2b5937696c31836040516115bf91906121fd565b60405180910390a3505050565b6115e682826040518060200160405280600081525061167c565b5050565b80600860008481526020019081526020016000209080519060200190611611929190611a6b565b505050565b611621848484611134565b61162d848484846116d7565b61166c576040517f08c379a00000000000000000000000000000000000000000000000000000000081526004016116639061223a565b60405180910390fd5b50505050565b505050565b505050565b611686838361186e565b61169360008484846116d7565b6116d2576040517f08c379a00000000000000000000000000000000000000000000000000000000081526004016116c99061223a565b60405180910390fd5b505050565b60006116f88473ffffffffffffffffffffffffffffffffffffffff16611a48565b15611861578373ffffffffffffffffffffffffffffffffffffffff1663150b7a02611721610f95565b8786866040518563ffffffff1660e01b815260040161174394939291906121b1565b602060405180830381600087803b15801561175d57600080fd5b505af192505050801561178e57506040513d601f19601f8201168201806040525081019061178b9190611e47565b60015b611811573d80600081146117be576040519150601f19603f3d011682016040523d82523d6000602084013e6117c3565b606091505b50600081511415611809576040517f08c379a00000000000000000000000000000000000000000000000000000000081526004016118009061223a565b60405180910390fd5b805181602001fd5b63150b7a0260e01b7bffffffffffffffffffffffffffffffffffffffffffffffffffffffff1916817bffffffffffffffffffffffffffffffffffffffffffffffffffffffff191614915050611866565b600190505b949350505050565b600073ffffffffffffffffffffffffffffffffffffffff168273ffffffffffffffffffffffffffffffffffffffff1614156118de576040517f08c379a00000000000000000000000000000000000000000000000000000000081526004016118d59061237a565b60405180910390fd5b6118e781610f29565b15611927576040517f08c379a000000000000000000000000000000000000000000000000000000000815260040161191e9061229a565b60405180910390fd5b61193360008383611672565b6001600460008473ffffffffffffffffffffffffffffffffffffffff1673ffffffffffffffffffffffffffffffffffffffff168152602001908152602001600020600082825461198391906124f4565b92505081905550816003600083815260200190815260200160002060006101000a81548173ffffffffffffffffffffffffffffffffffffffff021916908373ffffffffffffffffffffffffffffffffffffffff160217905550808273ffffffffffffffffffffffffffffffffffffffff16600073ffffffffffffffffffffffffffffffffffffffff167fddf252ad1be2c89b69c2b068fc378daa952ba7f163c4a11628f55a4df523b3ef60405160405180910390a4611a4460008383611677565b5050565b6000808273ffffffffffffffffffffffffffffffffffffffff163b119050919050565b828054611a7790612634565b90600052602060002090601f016020900481019282611a995760008555611ae0565b82601f10611ab257805160ff1916838001178555611ae0565b82800160010185558215611ae0579182015b82811115611adf578251825591602001919060010190611ac4565b5b509050611aed9190611af1565b5090565b5b80821115611b0a576000816000905550600101611af2565b5090565b6000611b21611b1c8461245a565b612435565b905082815260208101848484011115611b3d57611b3c612772565b5b611b488482856125f2565b509392505050565b6000611b63611b5e8461248b565b612435565b905082815260208101848484011115611b7f57611b7e612772565b5b611b8a8482856125f2565b509392505050565b600081359050611ba181612b9b565b92915050565b600081359050611bb681612bb2565b92915050565b600081359050611bcb81612bc9565b92915050565b600081519050611be081612bc9565b92915050565b600082601f830112611bfb57611bfa61276d565b5b8135611c0b848260208601611b0e565b91505092915050565b600082601f830112611c2957611c2861276d565b5b8135611c39848260208601611b50565b91505092915050565b600081359050611c5181612be0565b92915050565b600060208284031215611c6d57611c6c61277c565b5b6000611c7b84828501611b92565b91505092915050565b60008060408385031215611c9b57611c9a61277c565b5b6000611ca985828601611b92565b9250506020611cba85828601611b92565b9150509250929050565b600080600060608486031215611cdd57611cdc61277c565b5b6000611ceb86828701611b92565b9350506020611cfc86828701611b92565b9250506040611d0d86828701611c42565b9150509250925092565b60008060008060808587031215611d3157611d3061277c565b5b6000611d3f87828801611b92565b9450506020611d5087828801611b92565b9350506040611d6187828801611c42565b925050606085013567ffffffffffffffff811115611d8257611d81612777565b5b611d8e87828801611be6565b91505092959194509250565b60008060408385031215611db157611db061277c565b5b6000611dbf85828601611b92565b9250506020611dd085828601611ba7565b9150509250929050565b60008060408385031215611df157611df061277c565b5b6000611dff85828601611b92565b9250506020611e1085828601611c42565b9150509250929050565b600060208284031215611e3057611e2f61277c565b5b6000611e3e84828501611bbc565b91505092915050565b600060208284031215611e5d57611e5c61277c565b5b6000611e6b84828501611bd1565b91505092915050565b600060208284031215611e8a57611e8961277c565b5b600082013567ffffffffffffffff811115611ea857611ea7612777565b5b611eb484828501611c14565b91505092915050565b600060208284031215611ed357611ed261277c565b5b6000611ee184828501611c42565b91505092915050565b611ef38161257e565b82525050565b611f0281612590565b82525050565b6000611f13826124bc565b611f1d81856124d2565b9350611f2d818560208601612601565b611f3681612781565b840191505092915050565b6000611f4c826124c7565b611f5681856124e3565b9350611f66818560208601612601565b611f6f81612781565b840191505092915050565b6000611f876032836124e3565b9150611f9282612792565b604082019050919050565b6000611faa6026836124e3565b9150611fb5826127e1565b604082019050919050565b6000611fcd6025836124e3565b9150611fd882612830565b604082019050919050565b6000611ff0601c836124e3565b9150611ffb8261287f565b602082019050919050565b60006120136024836124e3565b915061201e826128a8565b604082019050919050565b60006120366019836124e3565b9150612041826128f7565b602082019050919050565b6000612059602c836124e3565b915061206482612920565b604082019050919050565b600061207c6038836124e3565b91506120878261296f565b604082019050919050565b600061209f602a836124e3565b91506120aa826129be565b604082019050919050565b60006120c26029836124e3565b91506120cd82612a0d565b604082019050919050565b60006120e56020836124e3565b91506120f082612a5c565b602082019050919050565b6000612108602c836124e3565b915061211382612a85565b604082019050919050565b600061212b6020836124e3565b915061213682612ad4565b602082019050919050565b600061214e6021836124e3565b915061215982612afd565b604082019050919050565b60006121716031836124e3565b915061217c82612b4c565b604082019050919050565b612190816125e8565b82525050565b60006020820190506121ab6000830184611eea565b92915050565b60006080820190506121c66000830187611eea565b6121d36020830186611eea565b6121e06040830185612187565b81810360608301526121f28184611f08565b905095945050505050565b60006020820190506122126000830184611ef9565b92915050565b600060208201905081810360008301526122328184611f41565b905092915050565b6000602082019050818103600083015261225381611f7a565b9050919050565b6000602082019050818103600083015261227381611f9d565b9050919050565b6000602082019050818103600083015261229381611fc0565b9050919050565b600060208201905081810360008301526122b381611fe3565b9050919050565b600060208201905081810360008301526122d381612006565b9050919050565b600060208201905081810360008301526122f381612029565b9050919050565b600060208201905081810360008301526123138161204c565b9050919050565b600060208201905081810360008301526123338161206f565b9050919050565b6000602082019050818103600083015261235381612092565b9050919050565b60006020820190508181036000830152612373816120b5565b9050919050565b60006020820190508181036000830152612393816120d8565b9050919050565b600060208201905081810360008301526123b3816120fb565b9050919050565b600060208201905081810360008301526123d38161211e565b9050919050565b600060208201905081810360008301526123f381612141565b9050919050565b6000602082019050818103600083015261241381612164565b9050919050565b600060208201905061242f6000830184612187565b92915050565b600061243f612450565b905061244b8282612666565b919050565b6000604051905090565b600067ffffffffffffffff8211156124755761247461273e565b5b61247e82612781565b9050602081019050919050565b600067ffffffffffffffff8211156124a6576124a561273e565b5b6124af82612781565b9050602081019050919050565b600081519050919050565b600081519050919050565b600082825260208201905092915050565b600082825260208201905092915050565b60006124ff826125e8565b915061250a836125e8565b9250827fffffffffffffffffffffffffffffffffffffffffffffffffffffffffffffffff0382111561253f5761253e6126e0565b5b828201905092915050565b6000612555826125e8565b9150612560836125e8565b925082821015612573576125726126e0565b5b828203905092915050565b6000612589826125c8565b9050919050565b60008115159050919050565b60007fffffffff0000000000000000000000000000000000000000000000000000000082169050919050565b600073ffffffffffffffffffffffffffffffffffffffff82169050919050565b6000819050919050565b82818337600083830152505050565b60005b8381101561261f578082015181840152602081019050612604565b8381111561262e576000848401525b50505050565b6000600282049050600182168061264c57607f821691505b602082108114156126605761265f61270f565b5b50919050565b61266f82612781565b810181811067ffffffffffffffff8211171561268e5761268d61273e565b5b80604052505050565b60006126a2826125e8565b91507fffffffffffffffffffffffffffffffffffffffffffffffffffffffffffffffff8214156126d5576126d46126e0565b5b600182019050919050565b7f4e487b7100000000000000000000000000000000000000000000000000000000600052601160045260246000fd5b7f4e487b7100000000000000000000000000000000000000000000000000000000600052602260045260246000fd5b7f4e487b7100000000000000000000000000000000000000000000000000000000600052604160045260246000fd5b600080fd5b600080fd5b600080fd5b600080fd5b6000601f19601f8301169050919050565b7f4552433732313a207472616e7366657220746f206e6f6e20455243373231526560008201527f63656976657220696d706c656d656e7465720000000000000000000000000000602082015250565b7f4f776e61626c653a206e6577206f776e657220697320746865207a65726f206160008201527f6464726573730000000000000000000000000000000000000000000000000000602082015250565b7f4552433732313a207472616e736665722066726f6d20696e636f72726563742060008201527f6f776e6572000000000000000000000000000000000000000000000000000000602082015250565b7f4552433732313a20746f6b656e20616c7265616479206d696e74656400000000600082015250565b7f4552433732313a207472616e7366657220746f20746865207a65726f2061646460008201527f7265737300000000000000000000000000000000000000000000000000000000602082015250565b7f4552433732313a20617070726f766520746f2063616c6c657200000000000000600082015250565b7f4552433732313a206f70657261746f7220717565727920666f72206e6f6e657860008201527f697374656e7420746f6b656e0000000000000000000000000000000000000000602082015250565b7f4552433732313a20617070726f76652063616c6c6572206973206e6f74206f7760008201527f6e6572206e6f7220617070726f76656420666f7220616c6c0000000000000000602082015250565b7f4552433732313a2062616c616e636520717565727920666f7220746865207a6560008201527f726f206164647265737300000000000000000000000000000000000000000000602082015250565b7f4552433732313a206f776e657220717565727920666f72206e6f6e657869737460008201527f656e7420746f6b656e0000000000000000000000000000000000000000000000602082015250565b7f4552433732313a206d696e7420746f20746865207a65726f2061646472657373600082015250565b7f4552433732313a20617070726f76656420717565727920666f72206e6f6e657860008201527f697374656e7420746f6b656e0000000000000000000000000000000000000000602082015250565b7f4f776e61626c653a2063616c6c6572206973206e6f7420746865206f776e6572600082015250565b7f4552433732313a20617070726f76616c20746f2063757272656e74206f776e6560008201527f7200000000000000000000000000000000000000000000000000000000000000602082015250565b7f4552433732313a207472616e736665722063616c6c6572206973206e6f74206f60008201527f776e6572206e6f7220617070726f766564000000000000000000000000000000602082015250565b612ba48161257e565b8114612baf57600080fd5b50565b612bbb81612590565b8114612bc657600080fd5b50565b612bd28161259c565b8114612bdd57600080fd5b50565b612be9816125e8565b8114612bf457600080fd5b5056fea2646970667358221220430781a9b9edfdb1fbefcf0e58e13bf656beeda8dae4cf02810bfd420be22b1964736f6c63430008070033",
  "immutableReferences": {},
  "source": "// SPDX-License-Identifier: MIT\r\npragma solidity >=0.4.22 <0.9.0;\r\n\r\nimport \"@openzeppelin/contracts/token/ERC721/ERC721.sol\";\r\nimport \"@openzeppelin/contracts/utils/Counters.sol\";\r\nimport \"@openzeppelin/contracts/access/Ownable.sol\";\r\n\r\ncontract nft is Ownable, ERC721 {\r\n    uint private tokenID=0;\r\n    using Strings for uint256; \r\n\r\n    mapping(uint256 => string) private _tokenURIs;\r\n    mapping(uint256 =>address) private ownership;\r\n    mapping(uint256=>bool) private valid;\r\n    constructor()  ERC721(\"nft\", \"A\") {}\r\n\r\n\r\n\r\n    function _setTokenURI(uint256 tokenId, string memory _tokenURI)\r\n        internal\r\n        virtual\r\n    {\r\n        \r\n        _tokenURIs[tokenId] = _tokenURI;\r\n    }\r\n\r\n    \r\n\r\n    function tokenURI(uint256 tokenId)\r\n        public\r\n        view\r\n        virtual\r\n        override\r\n        returns (string memory)\r\n    {\r\n        \r\n        if(valid[tokenId]==true)\r\n        {\r\n            string memory _tokenURI = _tokenURIs[tokenId];\r\n            return _tokenURI;\r\n        }\r\n        else{\r\n            return \"none\";\r\n\r\n        }\r\n        \r\n        \r\n    }\r\n\r\n    function claimItem(string memory tokenURIs) public returns (uint256) {\r\n        \r\n        uint256 newItemId = tokenID++;\r\n        _safeMint(msg.sender, newItemId);\r\n        _setTokenURI(newItemId, tokenURIs);\r\n        ownership[newItemId]=msg.sender;\r\n        valid[newItemId]= true;\r\n        return newItemId;\r\n    }\r\n\r\n\r\n    function burn(uint256 tokenid) public {\r\n        require(valid[tokenid]==true && msg.sender==ownership[tokenid]);\r\n        {\r\n            ownership[tokenid]=address(0);\r\n            valid[tokenid]=false;\r\n        }\r\n    }\r\n}",
  "sourcePath": "D:\\learn block chain\\block-chain\\nft-demo\\contracts\\artCollectible.sol",
  "compiler": {
    "name": "solc",
    "version": "0.8.7+commit.e28d00a7.Emscripten.clang"
  },
  "schemaVersion": "3.4.5",
  "updatedAt": "2022-02-18T16:08:35.219Z",
  "devdoc": {
    "kind": "dev",
    "methods": {
      "approve(address,uint256)": {
        "details": "See {IERC721-approve}."
      },
      "balanceOf(address)": {
        "details": "See {IERC721-balanceOf}."
      },
      "getApproved(uint256)": {
        "details": "See {IERC721-getApproved}."
      },
      "isApprovedForAll(address,address)": {
        "details": "See {IERC721-isApprovedForAll}."
      },
      "name()": {
        "details": "See {IERC721Metadata-name}."
      },
      "owner()": {
        "details": "Returns the address of the current owner."
      },
      "ownerOf(uint256)": {
        "details": "See {IERC721-ownerOf}."
      },
      "renounceOwnership()": {
        "details": "Leaves the contract without owner. It will not be possible to call `onlyOwner` functions anymore. Can only be called by the current owner. NOTE: Renouncing ownership will leave the contract without an owner, thereby removing any functionality that is only available to the owner."
      },
      "safeTransferFrom(address,address,uint256)": {
        "details": "See {IERC721-safeTransferFrom}."
      },
      "safeTransferFrom(address,address,uint256,bytes)": {
        "details": "See {IERC721-safeTransferFrom}."
      },
      "setApprovalForAll(address,bool)": {
        "details": "See {IERC721-setApprovalForAll}."
      },
      "supportsInterface(bytes4)": {
        "details": "See {IERC165-supportsInterface}."
      },
      "symbol()": {
        "details": "See {IERC721Metadata-symbol}."
      },
      "tokenURI(uint256)": {
        "details": "See {IERC721Metadata-tokenURI}."
      },
      "transferFrom(address,address,uint256)": {
        "details": "See {IERC721-transferFrom}."
      },
      "transferOwnership(address)": {
        "details": "Transfers ownership of the contract to a new account (`newOwner`). Can only be called by the current owner."
      }
    },
    "version": 1
  },
  "userdoc": {
    "kind": "user",
    "methods": {},
    "version": 1
  }
}